{
  "contractName": "Splitter",
  "abi": [
    {
      "constant": true,
      "inputs": [
        {
          "name": "",
          "type": "address"
        }
      ],
      "name": "balances",
      "outputs": [
        {
          "name": "",
          "type": "uint256"
        }
      ],
      "payable": false,
      "stateMutability": "view",
      "type": "function"
    },
    {
      "constant": true,
      "inputs": [],
      "name": "owner",
      "outputs": [
        {
          "name": "",
          "type": "address"
        }
      ],
      "payable": false,
      "stateMutability": "view",
      "type": "function"
    },
    {
      "inputs": [],
      "payable": false,
      "stateMutability": "nonpayable",
      "type": "constructor"
    },
    {
      "payable": false,
      "stateMutability": "nonpayable",
      "type": "fallback"
    },
    {
      "anonymous": false,
      "inputs": [
        {
          "indexed": true,
          "name": "sender",
          "type": "address"
        },
        {
          "indexed": true,
          "name": "recipient1",
          "type": "address"
        },
        {
          "indexed": true,
          "name": "recipient2",
          "type": "address"
        },
        {
          "indexed": false,
          "name": "amount",
          "type": "uint256"
        }
      ],
      "name": "LogSplitFunds",
      "type": "event"
    },
    {
      "constant": false,
      "inputs": [
        {
          "name": "_recipient1",
          "type": "address"
        },
        {
          "name": "_recipient2",
          "type": "address"
        }
      ],
      "name": "splitFunds",
      "outputs": [
        {
          "name": "",
          "type": "bool"
        }
      ],
      "payable": true,
      "stateMutability": "payable",
      "type": "function"
    },
    {
      "constant": false,
      "inputs": [],
      "name": "killMe",
      "outputs": [
        {
          "name": "",
          "type": "bool"
        }
      ],
      "payable": false,
      "stateMutability": "nonpayable",
      "type": "function"
    }
  ],
  "bytecode": "0x6060604052341561000f57600080fd5b336000806101000a81548173ffffffffffffffffffffffffffffffffffffffff021916908373ffffffffffffffffffffffffffffffffffffffff1602179055506107718061005e6000396000f300606060405260043610610062576000357c0100000000000000000000000000000000000000000000000000000000900463ffffffff16806327e235e31461006f5780632accf2f7146100bc5780638da5cb5b14610121578063b603cd8014610176575b341561006d57600080fd5b005b341561007a57600080fd5b6100a6600480803573ffffffffffffffffffffffffffffffffffffffff169060200190919050506101a3565b6040518082815260200191505060405180910390f35b610107600480803573ffffffffffffffffffffffffffffffffffffffff1690602001909190803573ffffffffffffffffffffffffffffffffffffffff169060200190919050506101bb565b604051808215151515815260200191505060405180910390f35b341561012c57600080fd5b610134610395565b604051808273ffffffffffffffffffffffffffffffffffffffff1673ffffffffffffffffffffffffffffffffffffffff16815260200191505060405180910390f35b341561018157600080fd5b6101896103ba565b604051808215151515815260200191505060405180910390f35b60016020528060005260406000206000915090505481565b60008060003373ffffffffffffffffffffffffffffffffffffffff166000809054906101000a900473ffffffffffffffffffffffffffffffffffffffff1673ffffffffffffffffffffffffffffffffffffffff1614151561021b57600080fd5b60003411151561022a57600080fd5b6102348585610451565b151561023f57600080fd5b60023481151561024b57fe5b04915060023481151561025a57fe5b06905081600160008773ffffffffffffffffffffffffffffffffffffffff1673ffffffffffffffffffffffffffffffffffffffff16815260200190815260200160002060008282540192505081905550808201600160008673ffffffffffffffffffffffffffffffffffffffff1673ffffffffffffffffffffffffffffffffffffffff16815260200190815260200160002060008282540192505081905550610302856105cc565b5061030c846105cc565b508373ffffffffffffffffffffffffffffffffffffffff168573ffffffffffffffffffffffffffffffffffffffff163373ffffffffffffffffffffffffffffffffffffffff167fb343b0b1e679ef97dbcde70eb060e0678664c30d6bc13b5864609991c5595b2c346040518082815260200191505060405180910390a460019250505092915050565b6000809054906101000a900473ffffffffffffffffffffffffffffffffffffffff1681565b60008060009054906101000a900473ffffffffffffffffffffffffffffffffffffffff1673ffffffffffffffffffffffffffffffffffffffff163373ffffffffffffffffffffffffffffffffffffffff1614151561041757600080fd5b6000809054906101000a900473ffffffffffffffffffffffffffffffffffffffff1673ffffffffffffffffffffffffffffffffffffffff16ff5b60008173ffffffffffffffffffffffffffffffffffffffff168373ffffffffffffffffffffffffffffffffffffffff16141561049057600090506105c6565b8273ffffffffffffffffffffffffffffffffffffffff166000809054906101000a900473ffffffffffffffffffffffffffffffffffffffff1673ffffffffffffffffffffffffffffffffffffffff1614156104ee57600090506105c6565b8173ffffffffffffffffffffffffffffffffffffffff166000809054906101000a900473ffffffffffffffffffffffffffffffffffffffff1673ffffffffffffffffffffffffffffffffffffffff16141561054c57600090506105c6565b600073ffffffffffffffffffffffffffffffffffffffff168373ffffffffffffffffffffffffffffffffffffffff1614806105b35750600073ffffffffffffffffffffffffffffffffffffffff168273ffffffffffffffffffffffffffffffffffffffff16145b156105c157600090506105c6565b600190505b92915050565b60008060009054906101000a900473ffffffffffffffffffffffffffffffffffffffff1673ffffffffffffffffffffffffffffffffffffffff163373ffffffffffffffffffffffffffffffffffffffff1614151561062957600080fd5b6000600160008473ffffffffffffffffffffffffffffffffffffffff1673ffffffffffffffffffffffffffffffffffffffff168152602001908152602001600020541415151561067857600080fd5b8173ffffffffffffffffffffffffffffffffffffffff166108fc600160008573ffffffffffffffffffffffffffffffffffffffff1673ffffffffffffffffffffffffffffffffffffffff168152602001908152602001600020549081150290604051600060405180830381858888f1935050505015156106f757600080fd5b6000600160008473ffffffffffffffffffffffffffffffffffffffff1673ffffffffffffffffffffffffffffffffffffffff16815260200190815260200160002081905550600190509190505600a165627a7a7230582063484f2a509c243cd2d24d4d0eeac71f10f4119b1c3d43e62b0121873b914c6b0029",
  "source": "pragma solidity ^ 0.4.17;\n\ncontract Splitter {\n\n  address public owner;\n  mapping(address => uint) public balances;\n\n  event LogSplitFunds(address indexed sender, address indexed recipient1, address indexed recipient2,\n                      uint amount);\n\n  function Splitter() public { owner = msg.sender; }\n\n  function splitFunds(address _recipient1, address _recipient2) public payable\n  returns(bool) {\n    require(owner == msg.sender);\n    require(msg.value > 0);\n    if (!isRecipientsValid(_recipient1, _recipient2)) {\n      revert();\n    }\n\n    uint amountHalf = msg.value / 2;\n    uint remainder = msg.value % 2;\n\n    balances[_recipient1] += amountHalf;\n    balances[_recipient2] += amountHalf + remainder;\n\n    payToRecipient(_recipient1);\n    payToRecipient(_recipient2);\n\n    LogSplitFunds(msg.sender, _recipient1, _recipient2, msg.value);\n    return true;\n  }\n\n  function isRecipientsValid(address _recipient1,\n                             address _recipient2) private view returns(bool) {\n    if (_recipient1 == _recipient2)\n      return false;\n    if (owner == _recipient1)\n      return false;\n    if (owner == _recipient2)\n      return false;\n    if ((_recipient1 == address(0x00)) || (_recipient2 == address(0x00)))\n      return false;\n\n    return true;\n  }\n\n  function payToRecipient(address _recipientAddress) private returns(bool) {\n    require(msg.sender == owner);\n    require(balances[_recipientAddress] != 0);\n    _recipientAddress.transfer(balances[_recipientAddress]);\n    balances[_recipientAddress] = 0;\n    return true;\n  }\n\n  function killMe() public returns(bool) {\n    require(msg.sender == owner);\n    selfdestruct(owner);\n    return true;\n  }\n\n  function() public {}\n}",
  "sourcePath": "/home/vibhor/ChainSkills/b9labs/Projects/Splitter/contracts/Splitter.sol",
  "compiler": {
    "name": "solc",
    "version": "0.4.19+commit.c4cbbb05.Emscripten.clang"
  },
  "schemaVersion": "2.0.0",
  "updatedAt": "2018-04-11T03:33:03.236Z"
}