{
  "contractName": "Splitter",
  "abi": [
    {
      "constant": true,
      "inputs": [
        {
          "name": "",
          "type": "uint256"
        }
      ],
      "name": "_usersStruct",
      "outputs": [
        {
          "name": "userAddress",
          "type": "address"
        },
        {
          "name": "name",
          "type": "string"
        },
        {
          "name": "amount",
          "type": "uint256"
        }
      ],
      "payable": false,
      "stateMutability": "view",
      "type": "function"
    },
    {
      "constant": true,
      "inputs": [],
      "name": "_ownerAddress",
      "outputs": [
        {
          "name": "",
          "type": "address"
        }
      ],
      "payable": false,
      "stateMutability": "view",
      "type": "function"
    },
    {
      "constant": true,
      "inputs": [],
      "name": "_ownerName",
      "outputs": [
        {
          "name": "",
          "type": "string"
        }
      ],
      "payable": false,
      "stateMutability": "view",
      "type": "function"
    },
    {
      "inputs": [
        {
          "name": "ownerName",
          "type": "string"
        },
        {
          "name": "user1Name",
          "type": "string"
        },
        {
          "name": "user1Address",
          "type": "address"
        },
        {
          "name": "user2Name",
          "type": "string"
        },
        {
          "name": "user2Address",
          "type": "address"
        }
      ],
      "payable": false,
      "stateMutability": "nonpayable",
      "type": "constructor"
    },
    {
      "constant": false,
      "inputs": [],
      "name": "split",
      "outputs": [
        {
          "name": "",
          "type": "bool"
        }
      ],
      "payable": true,
      "stateMutability": "payable",
      "type": "function"
    },
    {
      "constant": false,
      "inputs": [],
      "name": "performTransfer",
      "outputs": [
        {
          "name": "",
          "type": "bool"
        }
      ],
      "payable": false,
      "stateMutability": "nonpayable",
      "type": "function"
    },
    {
      "constant": true,
      "inputs": [],
      "name": "getOwnerName",
      "outputs": [
        {
          "name": "name",
          "type": "string"
        }
      ],
      "payable": false,
      "stateMutability": "view",
      "type": "function"
    },
    {
      "constant": true,
      "inputs": [],
      "name": "getOwnerAddress",
      "outputs": [
        {
          "name": "ownerAddress",
          "type": "address"
        }
      ],
      "payable": false,
      "stateMutability": "view",
      "type": "function"
    },
    {
      "constant": true,
      "inputs": [
        {
          "name": "userAddress",
          "type": "address"
        }
      ],
      "name": "getUserAmount",
      "outputs": [
        {
          "name": "amount",
          "type": "uint256"
        }
      ],
      "payable": false,
      "stateMutability": "view",
      "type": "function"
    },
    {
      "constant": false,
      "inputs": [],
      "name": "killMe",
      "outputs": [
        {
          "name": "",
          "type": "bool"
        }
      ],
      "payable": false,
      "stateMutability": "nonpayable",
      "type": "function"
    }
  ],
  "bytecode": "0x606060405234156200001057600080fd5b60405162000f0338038062000f03833981016040528080518201919060200180518201919060200180519060200190919080518201919060200180519060200190919050506200005f62000290565b6200006962000290565b866000908051906020019062000081929190620002d0565b5033600160006101000a81548173ffffffffffffffffffffffffffffffffffffffff021916908373ffffffffffffffffffffffffffffffffffffffff16021790555084826000019073ffffffffffffffffffffffffffffffffffffffff16908173ffffffffffffffffffffffffffffffffffffffff1681525050858260200181905250600280548060010182816200011a919062000357565b9160005260206000209060030201600084909190915060008201518160000160006101000a81548173ffffffffffffffffffffffffffffffffffffffff021916908373ffffffffffffffffffffffffffffffffffffffff1602179055506020820151816001019080519060200190620001959291906200038c565b506040820151816002015550505082816000019073ffffffffffffffffffffffffffffffffffffffff16908173ffffffffffffffffffffffffffffffffffffffff168152505083816020018190525060028054806001018281620001fa919062000357565b9160005260206000209060030201600083909190915060008201518160000160006101000a81548173ffffffffffffffffffffffffffffffffffffffff021916908373ffffffffffffffffffffffffffffffffffffffff1602179055506020820151816001019080519060200190620002759291906200038c565b506040820151816002015550505050505050505050620004fe565b606060405190810160405280600073ffffffffffffffffffffffffffffffffffffffff168152602001620002c362000413565b8152602001600081525090565b828054600181600116156101000203166002900490600052602060002090601f016020900481019282601f106200031357805160ff191683800117855562000344565b8280016001018555821562000344579182015b828111156200034357825182559160200191906001019062000326565b5b50905062000353919062000427565b5090565b81548183558181151162000387576003028160030283600052602060002091820191016200038691906200044f565b5b505050565b828054600181600116156101000203166002900490600052602060002090601f016020900481019282601f10620003cf57805160ff191683800117855562000400565b8280016001018555821562000400579182015b82811115620003ff578251825591602001919060010190620003e2565b5b5090506200040f919062000427565b5090565b602060405190810160405280600081525090565b6200044c91905b80821115620004485760008160009055506001016200042e565b5090565b90565b620004af91905b80821115620004ab57600080820160006101000a81549073ffffffffffffffffffffffffffffffffffffffff0219169055600182016000620004999190620004b2565b60028201600090555060030162000456565b5090565b90565b50805460018160011615610100020316600290046000825580601f10620004da5750620004fb565b601f016020900490600052602060002090810190620004fa919062000427565b5b50565b6109f5806200050e6000396000f300606060405260043610610099576000357c0100000000000000000000000000000000000000000000000000000000900463ffffffff1680630c4f65bd1461009e578063145ef6e9146100f3578063327a943a14610181578063a006763c146101ce578063a786c18b146102c1578063b603cd8014610316578063cd0dc29614610343578063d8ec426e146103d1578063f7654176146103fe575b600080fd5b34156100a957600080fd5b6100b1610420565b604051808273ffffffffffffffffffffffffffffffffffffffff1673ffffffffffffffffffffffffffffffffffffffff16815260200191505060405180910390f35b34156100fe57600080fd5b61010661044a565b6040518080602001828103825283818151815260200191508051906020019080838360005b8381101561014657808201518184015260208101905061012b565b50505050905090810190601f1680156101735780820380516001836020036101000a031916815260200191505b509250505060405180910390f35b341561018c57600080fd5b6101b8600480803573ffffffffffffffffffffffffffffffffffffffff169060200190919050506104f2565b6040518082815260200191505060405180910390f35b34156101d957600080fd5b6101ef60048080359060200190919050506105b8565b604051808473ffffffffffffffffffffffffffffffffffffffff1673ffffffffffffffffffffffffffffffffffffffff168152602001806020018381526020018281038252848181546001816001161561010002031660029004815260200191508054600181600116156101000203166002900480156102b05780601f10610285576101008083540402835291602001916102b0565b820191906000526020600020905b81548152906001019060200180831161029357829003601f168201915b505094505050505060405180910390f35b34156102cc57600080fd5b6102d4610610565b604051808273ffffffffffffffffffffffffffffffffffffffff1673ffffffffffffffffffffffffffffffffffffffff16815260200191505060405180910390f35b341561032157600080fd5b610329610636565b604051808215151515815260200191505060405180910390f35b341561034e57600080fd5b6103566106cf565b6040518080602001828103825283818151815260200191508051906020019080838360005b8381101561039657808201518184015260208101905061037b565b50505050905090810190601f1680156103c35780820380516001836020036101000a031916815260200191505b509250505060405180910390f35b34156103dc57600080fd5b6103e461076d565b604051808215151515815260200191505060405180910390f35b61040661083d565b604051808215151515815260200191505060405180910390f35b6000600160009054906101000a900473ffffffffffffffffffffffffffffffffffffffff16905090565b6104526109b5565b60008054600181600116156101000203166002900480601f0160208091040260200160405190810160405280929190818152602001828054600181600116156101000203166002900480156104e85780601f106104bd576101008083540402835291602001916104e8565b820191906000526020600020905b8154815290600101906020018083116104cb57829003601f168201915b5050505050905090565b60008060006002805490509150600090505b818110156105b1578373ffffffffffffffffffffffffffffffffffffffff1660028281548110151561053257fe5b906000526020600020906003020160000160009054906101000a900473ffffffffffffffffffffffffffffffffffffffff1673ffffffffffffffffffffffffffffffffffffffff1614156105a45760028181548110151561058f57fe5b90600052602060002090600302016002015492505b8080600101915050610504565b5050919050565b6002818154811015156105c757fe5b90600052602060002090600302016000915090508060000160009054906101000a900473ffffffffffffffffffffffffffffffffffffffff169080600101908060020154905083565b600160009054906101000a900473ffffffffffffffffffffffffffffffffffffffff1681565b6000600160009054906101000a900473ffffffffffffffffffffffffffffffffffffffff1673ffffffffffffffffffffffffffffffffffffffff163373ffffffffffffffffffffffffffffffffffffffff1614151561069457600080fd5b600160009054906101000a900473ffffffffffffffffffffffffffffffffffffffff1673ffffffffffffffffffffffffffffffffffffffff16ff5b60008054600181600116156101000203166002900480601f0160208091040260200160405190810160405280929190818152602001828054600181600116156101000203166002900480156107655780601f1061073a57610100808354040283529160200191610765565b820191906000526020600020905b81548152906001019060200180831161074857829003601f168201915b505050505081565b60008060006002805490509150600090505b818110156108345760028181548110151561079657fe5b906000526020600020906003020160000160009054906101000a900473ffffffffffffffffffffffffffffffffffffffff1673ffffffffffffffffffffffffffffffffffffffff166108fc6002838154811015156107f057fe5b9060005260206000209060030201600201549081150290604051600060405180830381858888f19350505050151561082757600080fd5b808060010191505061077f565b60019250505090565b6000806000341415610857576000151561085657600080fd5b5b60023481151561086357fe5b049050806002600081548110151561087757fe5b90600052602060002090600302016002016000828254019250508190555080600260018154811015156108a657fe5b9060005260206000209060030201600201600082825401925050819055506108cd3461098c565b151561098457600260018154811015156108e357fe5b9060005260206000209060030201600201546002600081548110151561090557fe5b90600052602060002090600302016002015411156109525760016002600181548110151561092f57fe5b906000526020600020906003020160020160008282540192505081905550610983565b60016002600081548110151561096457fe5b9060005260206000209060030201600201600082825401925050819055505b5b600191505090565b60008060028381151561099b57fe5b0614156109ab57600190506109b0565b600090505b919050565b6020604051908101604052806000815250905600a165627a7a72305820b6bc395b15924af462cc390469d2cfe9b18d30d86e4673fc84e0331470ff75af0029",
  "source": "pragma solidity ^0.4.17;\n\ncontract Splitter{\n\n    struct UserStruct {\n        address userAddress;\n        string  name;\n        uint    amount;\n    }\n\n    string  public _ownerName;\n    address  public _ownerAddress;\n\n    //TODO: Check array can be replaced with map to avoid looping\n    UserStruct[] public _usersStruct;\n\n    function  Splitter(string ownerName, \n    string user1Name, address user1Address, \n    string user2Name, address user2Address) \n    public {\n        _ownerName = ownerName;\n        _ownerAddress = msg.sender;\n        UserStruct memory newUser1;\n        newUser1.userAddress = user1Address;\n        newUser1.name = user1Name;\n        _usersStruct.push(newUser1);\n\n        UserStruct memory newUser2;\n        newUser2.userAddress = user2Address;\n        newUser2.name = user2Name;\n        _usersStruct.push(newUser2);\n    }\n\n    function split() public payable returns(bool)\n    {\n        if(msg.value==0) require(false);\n        uint amountHalf = msg.value/2;\n        _usersStruct[0].amount += amountHalf;\n        _usersStruct[1].amount += amountHalf;\n        if(!checkEven(msg.value))\n        {\n            if(_usersStruct[0].amount > _usersStruct[1].amount)\n            {\n                _usersStruct[1].amount += 1;\n            }\n            else\n            {\n                _usersStruct[0].amount += 1;\n            }\n        }\n        return true;\n    }\n\n    function checkEven(uint value) pure private returns(bool)\n    {\n        if(value%2 == 0)\n            return true;\n        else\n            return false;    \n    } \n\n    function performTransfer() public returns(bool) {\n        uint size = _usersStruct.length;\n        for(uint count=0; count < size; count++)\n        {\n            _usersStruct[count].userAddress.transfer(_usersStruct[count].amount);\n        }\n        return true;\n    }\n\n    function getOwnerName() public view returns(string name){\n        name = _ownerName;\n    }\n\n    function getOwnerAddress() public view returns(address ownerAddress){\n        ownerAddress = _ownerAddress;\n    }\n\n    function getUserAmount(address userAddress) public view returns(uint amount){\n        uint size = _usersStruct.length;\n        for(uint count=0; count < size; count++)\n        {\n            if(_usersStruct[count].userAddress == userAddress)\n                amount = _usersStruct[count].amount;\n        }\n    }\n\n    function killMe() public returns (bool) {\n    require(msg.sender == _ownerAddress);\n    selfdestruct(_ownerAddress);\n    return true;\n    }\n\n}",
  "sourcePath": "/home/vibhor/ChainSkills/B9/week4/project/splitter/contracts/Splitter.sol",
  "compiler": {
    "name": "solc",
    "version": "0.4.19+commit.c4cbbb05.Emscripten.clang"
  },
  "schemaVersion": "2.0.0",
  "updatedAt": "2018-04-04T08:36:30.714Z"
}