{
  "contractName": "Splitter",
  "abi": [
    {
      "constant": true,
      "inputs": [
        {
          "name": "",
          "type": "uint256"
        }
      ],
      "name": "recipientIndex",
      "outputs": [
        {
          "name": "",
          "type": "address"
        }
      ],
      "payable": false,
      "stateMutability": "view",
      "type": "function"
    },
    {
      "constant": true,
      "inputs": [
        {
          "name": "",
          "type": "address"
        }
      ],
      "name": "balances",
      "outputs": [
        {
          "name": "",
          "type": "uint256"
        }
      ],
      "payable": false,
      "stateMutability": "view",
      "type": "function"
    },
    {
      "constant": true,
      "inputs": [],
      "name": "owner",
      "outputs": [
        {
          "name": "",
          "type": "address"
        }
      ],
      "payable": false,
      "stateMutability": "view",
      "type": "function"
    },
    {
      "inputs": [],
      "payable": false,
      "stateMutability": "nonpayable",
      "type": "constructor"
    },
    {
      "payable": false,
      "stateMutability": "nonpayable",
      "type": "fallback"
    },
    {
      "anonymous": false,
      "inputs": [
        {
          "indexed": false,
          "name": "data",
          "type": "string"
        }
      ],
      "name": "LogLogger",
      "type": "event"
    },
    {
      "anonymous": false,
      "inputs": [
        {
          "indexed": false,
          "name": "initiater",
          "type": "address"
        },
        {
          "indexed": false,
          "name": "action",
          "type": "string"
        },
        {
          "indexed": false,
          "name": "receiver",
          "type": "address"
        },
        {
          "indexed": false,
          "name": "amount",
          "type": "uint256"
        }
      ],
      "name": "LogSplitter",
      "type": "event"
    },
    {
      "constant": false,
      "inputs": [
        {
          "name": "_recipient1",
          "type": "address"
        },
        {
          "name": "_recipient2",
          "type": "address"
        }
      ],
      "name": "splitFunds",
      "outputs": [
        {
          "name": "",
          "type": "bool"
        }
      ],
      "payable": true,
      "stateMutability": "payable",
      "type": "function"
    },
    {
      "constant": false,
      "inputs": [
        {
          "name": "_recipientAddress",
          "type": "address"
        }
      ],
      "name": "payToRecipient",
      "outputs": [
        {
          "name": "",
          "type": "bool"
        }
      ],
      "payable": false,
      "stateMutability": "nonpayable",
      "type": "function"
    },
    {
      "constant": false,
      "inputs": [],
      "name": "killMe",
      "outputs": [
        {
          "name": "",
          "type": "bool"
        }
      ],
      "payable": false,
      "stateMutability": "nonpayable",
      "type": "function"
    }
  ],
  "bytecode": "0x6060604052341561000f57600080fd5b336000806101000a81548173ffffffffffffffffffffffffffffffffffffffff021916908373ffffffffffffffffffffffffffffffffffffffff160217905550610d3e8061005e6000396000f300606060405260043610610078576000357c0100000000000000000000000000000000000000000000000000000000900463ffffffff1680632340582b1461008557806327e235e3146100e85780632accf2f7146101355780634e57e0e81461019a5780638da5cb5b146101eb578063b603cd8014610240575b341561008357600080fd5b005b341561009057600080fd5b6100a6600480803590602001909190505061026d565b604051808273ffffffffffffffffffffffffffffffffffffffff1673ffffffffffffffffffffffffffffffffffffffff16815260200191505060405180910390f35b34156100f357600080fd5b61011f600480803573ffffffffffffffffffffffffffffffffffffffff169060200190919050506102ac565b6040518082815260200191505060405180910390f35b610180600480803573ffffffffffffffffffffffffffffffffffffffff1690602001909190803573ffffffffffffffffffffffffffffffffffffffff169060200190919050506102c4565b604051808215151515815260200191505060405180910390f35b34156101a557600080fd5b6101d1600480803573ffffffffffffffffffffffffffffffffffffffff1690602001909190505061066a565b604051808215151515815260200191505060405180910390f35b34156101f657600080fd5b6101fe61091b565b604051808273ffffffffffffffffffffffffffffffffffffffff1673ffffffffffffffffffffffffffffffffffffffff16815260200191505060405180910390f35b341561024b57600080fd5b610253610940565b604051808215151515815260200191505060405180910390f35b60028181548110151561027c57fe5b90600052602060002090016000915054906101000a900473ffffffffffffffffffffffffffffffffffffffff1681565b60016020528060005260406000206000915090505481565b60008060003373ffffffffffffffffffffffffffffffffffffffff166000809054906101000a900473ffffffffffffffffffffffffffffffffffffffff1673ffffffffffffffffffffffffffffffffffffffff1614151561032457600080fd5b60003411151561033357600080fd5b61033d85856109d7565b15156103b0577f58383e6d20d5dc27fa844876ea62d01fde81c7ef47d45c46ee53b95b4984af0760405180806020018281038252601d8152602001807f4c4f473a20526563697069656e7420696e76616c69642072657475726e00000081525060200191505060405180910390a1600080fd5b6002348115156103bc57fe5b0491506002348115156103cb57fe5b06905081600160008773ffffffffffffffffffffffffffffffffffffffff1673ffffffffffffffffffffffffffffffffffffffff168152602001908152602001600020600082825401925050819055507fd0d3655a801f5d5d27a7ef5d08b6bf8b4a8530512bedfe6966f0bd3fc45aa8dc6000809054906101000a900473ffffffffffffffffffffffffffffffffffffffff168684604051808473ffffffffffffffffffffffffffffffffffffffff1673ffffffffffffffffffffffffffffffffffffffff168152602001806020018473ffffffffffffffffffffffffffffffffffffffff1673ffffffffffffffffffffffffffffffffffffffff168152602001838152602001828103825260168152602001807f53706c69747465723a204164642066756e6420746f200000000000000000000081525060200194505050505060405180910390a1808201600160008673ffffffffffffffffffffffffffffffffffffffff1673ffffffffffffffffffffffffffffffffffffffff168152602001908152602001600020600082825401925050819055507fd0d3655a801f5d5d27a7ef5d08b6bf8b4a8530512bedfe6966f0bd3fc45aa8dc6000809054906101000a900473ffffffffffffffffffffffffffffffffffffffff1686838501604051808473ffffffffffffffffffffffffffffffffffffffff1673ffffffffffffffffffffffffffffffffffffffff168152602001806020018473ffffffffffffffffffffffffffffffffffffffff1673ffffffffffffffffffffffffffffffffffffffff168152602001838152602001828103825260168152602001807f53706c69747465723a204164642066756e6420746f200000000000000000000081525060200194505050505060405180910390a160019250505092915050565b60008060009054906101000a900473ffffffffffffffffffffffffffffffffffffffff1673ffffffffffffffffffffffffffffffffffffffff163373ffffffffffffffffffffffffffffffffffffffff161415156106c757600080fd5b6000600160008473ffffffffffffffffffffffffffffffffffffffff1673ffffffffffffffffffffffffffffffffffffffff168152602001908152602001600020541415151561071657600080fd5b8173ffffffffffffffffffffffffffffffffffffffff166108fc600160008573ffffffffffffffffffffffffffffffffffffffff1673ffffffffffffffffffffffffffffffffffffffff168152602001908152602001600020549081150290604051600060405180830381858888f19350505050151561079557600080fd5b7fd0d3655a801f5d5d27a7ef5d08b6bf8b4a8530512bedfe6966f0bd3fc45aa8dc6000809054906101000a900473ffffffffffffffffffffffffffffffffffffffff1683600160008673ffffffffffffffffffffffffffffffffffffffff1673ffffffffffffffffffffffffffffffffffffffff16815260200190815260200160002054604051808473ffffffffffffffffffffffffffffffffffffffff1673ffffffffffffffffffffffffffffffffffffffff168152602001806020018473ffffffffffffffffffffffffffffffffffffffff1673ffffffffffffffffffffffffffffffffffffffff1681526020018381526020018281038252601b8152602001807f53706c69747465723a205472616e736665722066756e6420746f20000000000081525060200194505050505060405180910390a16000600160008473ffffffffffffffffffffffffffffffffffffffff1673ffffffffffffffffffffffffffffffffffffffff1681526020019081526020016000208190555060019050919050565b6000809054906101000a900473ffffffffffffffffffffffffffffffffffffffff1681565b60008060009054906101000a900473ffffffffffffffffffffffffffffffffffffffff1673ffffffffffffffffffffffffffffffffffffffff163373ffffffffffffffffffffffffffffffffffffffff1614151561099d57600080fd5b6000809054906101000a900473ffffffffffffffffffffffffffffffffffffffff1673ffffffffffffffffffffffffffffffffffffffff16ff5b60008173ffffffffffffffffffffffffffffffffffffffff168373ffffffffffffffffffffffffffffffffffffffff161415610a165760009050610cbb565b8273ffffffffffffffffffffffffffffffffffffffff166000809054906101000a900473ffffffffffffffffffffffffffffffffffffffff1673ffffffffffffffffffffffffffffffffffffffff161415610a745760009050610cbb565b8173ffffffffffffffffffffffffffffffffffffffff166000809054906101000a900473ffffffffffffffffffffffffffffffffffffffff1673ffffffffffffffffffffffffffffffffffffffff161415610ad25760009050610cbb565b60006002805490501415610bab5760028054806001018281610af49190610cc1565b9160005260206000209001600085909190916101000a81548173ffffffffffffffffffffffffffffffffffffffff021916908373ffffffffffffffffffffffffffffffffffffffff1602179055505060028054806001018281610b579190610cc1565b9160005260206000209001600084909190916101000a81548173ffffffffffffffffffffffffffffffffffffffff021916908373ffffffffffffffffffffffffffffffffffffffff16021790555050610c4e565b6000600160008573ffffffffffffffffffffffffffffffffffffffff1673ffffffffffffffffffffffffffffffffffffffff168152602001908152602001600020541415610bfc5760009050610cbb565b6000600160008473ffffffffffffffffffffffffffffffffffffffff1673ffffffffffffffffffffffffffffffffffffffff168152602001908152602001600020541415610c4d5760009050610cbb565b5b7f58383e6d20d5dc27fa844876ea62d01fde81c7ef47d45c46ee53b95b4984af076040518080602001828103825260178152602001807f4c4f473a20526563697069656e742069732076616c696400000000000000000081525060200191505060405180910390a1600190505b92915050565b815481835581811511610ce857818360005260206000209182019101610ce79190610ced565b5b505050565b610d0f91905b80821115610d0b576000816000905550600101610cf3565b5090565b905600a165627a7a72305820b720ddea0c1611a3fdc59454889087dc9b2dd15bf4ba06d6c08d80983bc224660029",
  "source": "pragma solidity ^ 0.4.17;\n\ncontract Splitter {\n\n  address public owner;\n  mapping(address => uint) public balances;\n  address[] public recipientIndex;\n\n  event LogLogger(string data);\n  event LogSplitter(address initiater, string action, address receiver, uint amount);\n\n  function Splitter() public { owner = msg.sender; }\n\n  function splitFunds(address _recipient1, address _recipient2) public payable\n  returns(bool) {\n    require(owner == msg.sender);\n    require(msg.value > 0);\n    if(!isRecipientsValid(_recipient1, _recipient2))\n    {\n      LogLogger(\"LOG: Recipient invalid return\");\n      revert();  //TODO: revert() failing\n      return false;\n    }\n\n    uint amountHalf = msg.value / 2;\n    uint remainder = msg.value % 2;\n\n    balances[_recipient1] += amountHalf;\n    LogSplitter(owner, \"Splitter: Add fund to \", _recipient1, amountHalf);\n    balances[_recipient2] += amountHalf + remainder;\n    LogSplitter(owner, \"Splitter: Add fund to \", _recipient1, amountHalf + remainder);\n    return true;\n  }\n\n  function isRecipientsValid(address _recipient1,\n                             address _recipient2) private returns(bool) {\n    if(_recipient1 == _recipient2)\n      return false;\n    if(owner == _recipient1)\n      return false;\n    if(owner == _recipient2)\n      return false;\n\n    if (recipientIndex.length == 0) {\n      recipientIndex.push(_recipient1);\n      recipientIndex.push(_recipient2);\n    } else {\n      if(balances[_recipient1] == 0)\n        return false;\n      if(balances[_recipient2] == 0)\n        return false;\n    }\n    LogLogger(\"LOG: Recipient is valid\");\n    return true;\n  }\n\n  function payToRecipient(address _recipientAddress) public returns(bool) {\n    require(msg.sender == owner);\n    require(balances[_recipientAddress] != 0);\n    _recipientAddress.transfer(balances[_recipientAddress]);\n    LogSplitter(owner, \"Splitter: Transfer fund to \", _recipientAddress, balances[_recipientAddress]);\n    balances[_recipientAddress] = 0;\n    return true;\n  }\n\n  function killMe() public returns(bool) {\n    require(msg.sender == owner);\n    selfdestruct(owner);\n    return true;\n  }\n\n  function() public {}\n}",
  "sourcePath": "/home/vibhor/ChainSkills/b9labs/Projects/Splitter/contracts/Splitter.sol",
  "compiler": {
    "name": "solc",
    "version": "0.4.19+commit.c4cbbb05.Emscripten.clang"
  },
  "schemaVersion": "2.0.0",
  "updatedAt": "2018-04-06T06:05:55.196Z"
}